{
  "contractName": "Crowdsale",
  "abi": [
    {
      "inputs": [],
      "payable": false,
      "stateMutability": "nonpayable",
      "type": "constructor"
    },
    {
      "anonymous": false,
      "inputs": [
        {
          "indexed": false,
          "name": "_totalSupply",
          "type": "uint256"
        },
        {
          "indexed": false,
          "name": "_token",
          "type": "address"
        }
      ],
      "name": "TokenDeployed",
      "type": "event"
    },
    {
      "constant": false,
      "inputs": [],
      "name": "getQueue",
      "outputs": [
        {
          "name": "",
          "type": "address"
        }
      ],
      "payable": false,
      "stateMutability": "nonpayable",
      "type": "function"
    },
    {
      "constant": false,
      "inputs": [
        {
          "name": "_totalSupply",
          "type": "uint256"
        },
        {
          "name": "_endTime",
          "type": "uint256"
        },
        {
          "name": "_pricePerWei",
          "type": "uint256"
        }
      ],
      "name": "deployToken",
      "outputs": [],
      "payable": false,
      "stateMutability": "nonpayable",
      "type": "function"
    },
    {
      "constant": false,
      "inputs": [
        {
          "name": "_mintedAmount",
          "type": "uint256"
        }
      ],
      "name": "mintTokens",
      "outputs": [],
      "payable": false,
      "stateMutability": "nonpayable",
      "type": "function"
    },
    {
      "constant": false,
      "inputs": [
        {
          "name": "_burnedTokens",
          "type": "uint256"
        }
      ],
      "name": "burnTokens",
      "outputs": [],
      "payable": false,
      "stateMutability": "nonpayable",
      "type": "function"
    },
    {
      "constant": false,
      "inputs": [],
      "name": "receiveFunds",
      "outputs": [],
      "payable": true,
      "stateMutability": "payable",
      "type": "function"
    },
    {
      "constant": false,
      "inputs": [],
      "name": "buyTokens",
      "outputs": [],
      "payable": true,
      "stateMutability": "payable",
      "type": "function"
    },
    {
      "constant": false,
      "inputs": [],
      "name": "getTokenSupply",
      "outputs": [
        {
          "name": "",
          "type": "uint256"
        }
      ],
      "payable": false,
      "stateMutability": "nonpayable",
      "type": "function"
    }
  ],
  "bytecode": "0x6060604052341561000f57600080fd5b336000806101000a81548173ffffffffffffffffffffffffffffffffffffffff021916908373ffffffffffffffffffffffffffffffffffffffff1602179055506100576100dd565b604051809103906000f080151561006d57600080fd5b600160006101000a81548173ffffffffffffffffffffffffffffffffffffffff021916908373ffffffffffffffffffffffffffffffffffffffff1602179055506000600260146101000a81548160ff021916908315150217905550600060068190555060006007819055506100ed565b6040516108e68061199d83390190565b6118a1806100fc6000396000f300606060405260043610610082576000357c0100000000000000000000000000000000000000000000000000000000900463ffffffff1680625c33e11461008757806301fce27e1461009157806350cc62d6146100e65780636d1b229d1461011b57806397304ced1461013e578063ad974f4c14610161578063d0febe4c1461018a575b600080fd5b61008f610194565b005b341561009c57600080fd5b6100a4610201565b604051808273ffffffffffffffffffffffffffffffffffffffff1673ffffffffffffffffffffffffffffffffffffffff16815260200191505060405180910390f35b34156100f157600080fd5b610119600480803590602001909190803590602001909190803590602001909190505061022b565b005b341561012657600080fd5b61013c60048080359060200190919050506103b4565b005b341561014957600080fd5b61015f60048080359060200190919050506104e2565b005b341561016c57600080fd5b6101746105ff565b6040518082815260200191505060405180910390f35b6101926106af565b005b6000809054906101000a900473ffffffffffffffffffffffffffffffffffffffff1673ffffffffffffffffffffffffffffffffffffffff163373ffffffffffffffffffffffffffffffffffffffff161415156101ef57600080fd5b34600660008282540192505081905550565b6000600160009054906101000a900473ffffffffffffffffffffffffffffffffffffffff16905090565b6000809054906101000a900473ffffffffffffffffffffffffffffffffffffffff1673ffffffffffffffffffffffffffffffffffffffff163373ffffffffffffffffffffffffffffffffffffffff1614151561028657600080fd5b8261028f610b3a565b80828152602001915050604051809103906000f08015156102af57600080fd5b600260006101000a81548173ffffffffffffffffffffffffffffffffffffffff021916908373ffffffffffffffffffffffffffffffffffffffff1602179055507fb0886d5b89c3540effacb4587a5c495172ace26a507fef96fb8ccb8376ae9df583600260009054906101000a900473ffffffffffffffffffffffffffffffffffffffff16604051808381526020018273ffffffffffffffffffffffffffffffffffffffff1673ffffffffffffffffffffffffffffffffffffffff1681526020019250505060405180910390a16001600260146101000a81548160ff02191690831515021790555042600381905550603c820260048190555080600581905550505050565b6000809054906101000a900473ffffffffffffffffffffffffffffffffffffffff1673ffffffffffffffffffffffffffffffffffffffff163373ffffffffffffffffffffffffffffffffffffffff1614151561040f57600080fd5b600260149054906101000a900460ff16151561042a57600080fd5b600260009054906101000a900473ffffffffffffffffffffffffffffffffffffffff1673ffffffffffffffffffffffffffffffffffffffff16636d1b229d826000604051602001526040518263ffffffff167c010000000000000000000000000000000000000000000000000000000002815260040180828152602001915050602060405180830381600087803b15156104c357600080fd5b6102c65a03f115156104d457600080fd5b505050604051805190505050565b6000809054906101000a900473ffffffffffffffffffffffffffffffffffffffff1673ffffffffffffffffffffffffffffffffffffffff163373ffffffffffffffffffffffffffffffffffffffff1614151561053d57600080fd5b600260149054906101000a900460ff16151561055857600080fd5b600260009054906101000a900473ffffffffffffffffffffffffffffffffffffffff1673ffffffffffffffffffffffffffffffffffffffff166397304ced826040518263ffffffff167c010000000000000000000000000000000000000000000000000000000002815260040180828152602001915050600060405180830381600087803b15156105e857600080fd5b6102c65a03f115156105f957600080fd5b50505050565b6000600260009054906101000a900473ffffffffffffffffffffffffffffffffffffffff1673ffffffffffffffffffffffffffffffffffffffff1663c4e41b226000604051602001526040518163ffffffff167c0100000000000000000000000000000000000000000000000000000000028152600401602060405180830381600087803b151561068f57600080fd5b6102c65a03f115156106a057600080fd5b50505060405180519050905090565b6000600160009054906101000a900473ffffffffffffffffffffffffffffffffffffffff1673ffffffffffffffffffffffffffffffffffffffff16638f807f6b336000604051602001526040518263ffffffff167c0100000000000000000000000000000000000000000000000000000000028152600401808273ffffffffffffffffffffffffffffffffffffffff1673ffffffffffffffffffffffffffffffffffffffff168152602001915050602060405180830381600087803b151561077657600080fd5b6102c65a03f1151561078757600080fd5b50505060405180519050151561079c57600080fd5b600554348115156107a957fe5b04600860003373ffffffffffffffffffffffffffffffffffffffff1673ffffffffffffffffffffffffffffffffffffffff16815260200190815260200160002081905550600160009054906101000a900473ffffffffffffffffffffffffffffffffffffffff1673ffffffffffffffffffffffffffffffffffffffff1663ad7d59fc6000604051602001526040518163ffffffff167c0100000000000000000000000000000000000000000000000000000000028152600401602060405180830381600087803b151561087b57600080fd5b6102c65a03f1151561088c57600080fd5b5050506040518051905060ff169050346006600082825401925050819055506002811480156109615750600160009054906101000a900473ffffffffffffffffffffffffffffffffffffffff1673ffffffffffffffffffffffffffffffffffffffff1663e0c6190d6000604051602001526040518163ffffffff167c0100000000000000000000000000000000000000000000000000000000028152600401602060405180830381600087803b151561094457600080fd5b6102c65a03f1151561095557600080fd5b50505060405180519050155b15610b3757600260009054906101000a900473ffffffffffffffffffffffffffffffffffffffff1673ffffffffffffffffffffffffffffffffffffffff1663a9059cbb600160009054906101000a900473ffffffffffffffffffffffffffffffffffffffff1673ffffffffffffffffffffffffffffffffffffffff16631e2231436000604051602001526040518163ffffffff167c0100000000000000000000000000000000000000000000000000000000028152600401602060405180830381600087803b1515610a3257600080fd5b6102c65a03f11515610a4357600080fd5b50505060405180519050600860003373ffffffffffffffffffffffffffffffffffffffff1673ffffffffffffffffffffffffffffffffffffffff168152602001908152602001600020546000604051602001526040518363ffffffff167c0100000000000000000000000000000000000000000000000000000000028152600401808373ffffffffffffffffffffffffffffffffffffffff1673ffffffffffffffffffffffffffffffffffffffff16815260200182815260200192505050602060405180830381600087803b1515610b1a57600080fd5b6102c65a03f11515610b2b57600080fd5b50505060405180519050505b50565b604051610d2b80610b4b8339019056006060604052341561000f57600080fd5b604051602080610d2b8339810160405280805190602001909190505080600460003373ffffffffffffffffffffffffffffffffffffffff1673ffffffffffffffffffffffffffffffffffffffff16815260200190815260200160002081905550806003819055506040805190810160405280600481526020017f6e616d6500000000000000000000000000000000000000000000000000000000815250600190805190602001906100c19291906100c8565b505061016d565b828054600181600116156101000203166002900490600052602060002090601f016020900481019282601f1061010957805160ff1916838001178555610137565b82800160010185558215610137579182015b8281111561013657825182559160200191906001019061011b565b5b5090506101449190610148565b5090565b61016a91905b8082111561016657600081600090555060010161014e565b5090565b90565b610baf8061017c6000396000f3006060604052600436106100a4576000357c0100000000000000000000000000000000000000000000000000000000900463ffffffff16806306fdde03146100a9578063095ea7b31461013757806318160ddd1461019157806323b872dd146101ba5780636d1b229d1461023357806370a082311461026e57806397304ced146102bb578063a9059cbb146102de578063c4e41b2214610338578063dd62ed3e14610361575b600080fd5b34156100b457600080fd5b6100bc6103cd565b6040518080602001828103825283818151815260200191508051906020019080838360005b838110156100fc5780820151818401526020810190506100e1565b50505050905090810190601f1680156101295780820380516001836020036101000a031916815260200191505b509250505060405180910390f35b341561014257600080fd5b610177600480803573ffffffffffffffffffffffffffffffffffffffff1690602001909190803590602001909190505061046b565b604051808215151515815260200191505060405180910390f35b341561019c57600080fd5b6101a461055d565b6040518082815260200191505060405180910390f35b34156101c557600080fd5b610219600480803573ffffffffffffffffffffffffffffffffffffffff1690602001909190803573ffffffffffffffffffffffffffffffffffffffff16906020019091908035906020019091905050610563565b604051808215151515815260200191505060405180910390f35b341561023e57600080fd5b61025460048080359060200190919050506107fd565b604051808215151515815260200191505060405180910390f35b341561027957600080fd5b6102a5600480803573ffffffffffffffffffffffffffffffffffffffff169060200190919050506108f1565b6040518082815260200191505060405180910390f35b34156102c657600080fd5b6102dc600480803590602001909190505061093a565b005b34156102e957600080fd5b61031e600480803573ffffffffffffffffffffffffffffffffffffffff1690602001909190803590602001909190505061099a565b604051808215151515815260200191505060405180910390f35b341561034357600080fd5b61034b610af2565b6040518082815260200191505060405180910390f35b341561036c57600080fd5b6103b7600480803573ffffffffffffffffffffffffffffffffffffffff1690602001909190803573ffffffffffffffffffffffffffffffffffffffff16906020019091905050610afc565b6040518082815260200191505060405180910390f35b60018054600181600116156101000203166002900480601f0160208091040260200160405190810160405280929190818152602001828054600181600116156101000203166002900480156104635780601f1061043857610100808354040283529160200191610463565b820191906000526020600020905b81548152906001019060200180831161044657829003601f168201915b505050505081565b600081600560003373ffffffffffffffffffffffffffffffffffffffff1673ffffffffffffffffffffffffffffffffffffffff16815260200190815260200160002060008573ffffffffffffffffffffffffffffffffffffffff1673ffffffffffffffffffffffffffffffffffffffff168152602001908152602001600020819055508273ffffffffffffffffffffffffffffffffffffffff163373ffffffffffffffffffffffffffffffffffffffff167f8c5be1e5ebec7d5bd14f71427d1e84f3dd0314c0f7b2291e5b200ac8c7c3b925846040518082815260200191505060405180910390a36001905092915050565b60005481565b600080600560008673ffffffffffffffffffffffffffffffffffffffff1673ffffffffffffffffffffffffffffffffffffffff16815260200190815260200160002060003373ffffffffffffffffffffffffffffffffffffffff1673ffffffffffffffffffffffffffffffffffffffff16815260200190815260200160002054905082600460008773ffffffffffffffffffffffffffffffffffffffff1673ffffffffffffffffffffffffffffffffffffffff16815260200190815260200160002054101580156106345750828110155b151561063f57600080fd5b82600460008673ffffffffffffffffffffffffffffffffffffffff1673ffffffffffffffffffffffffffffffffffffffff1681526020019081526020016000206000828254019250508190555082600460008773ffffffffffffffffffffffffffffffffffffffff1673ffffffffffffffffffffffffffffffffffffffff168152602001908152602001600020600082825403925050819055507fffffffffffffffffffffffffffffffffffffffffffffffffffffffffffffffff81101561078c5782600560008773ffffffffffffffffffffffffffffffffffffffff1673ffffffffffffffffffffffffffffffffffffffff16815260200190815260200160002060003373ffffffffffffffffffffffffffffffffffffffff1673ffffffffffffffffffffffffffffffffffffffff168152602001908152602001600020600082825403925050819055505b8373ffffffffffffffffffffffffffffffffffffffff168573ffffffffffffffffffffffffffffffffffffffff167fddf252ad1be2c89b69c2b068fc378daa952ba7f163c4a11628f55a4df523b3ef856040518082815260200191505060405180910390a360019150509392505050565b600081600460003373ffffffffffffffffffffffffffffffffffffffff1673ffffffffffffffffffffffffffffffffffffffff168152602001908152602001600020541015151561084d57600080fd5b81600460003373ffffffffffffffffffffffffffffffffffffffff1673ffffffffffffffffffffffffffffffffffffffff168152602001908152602001600020600082825403925050819055503373ffffffffffffffffffffffffffffffffffffffff167f696de425f79f4a40bc6d2122ca50507f0efbeabbff86a84871b7196ab8ea8df7836040518082815260200191505060405180910390a260019050919050565b6000600460008373ffffffffffffffffffffffffffffffffffffffff1673ffffffffffffffffffffffffffffffffffffffff168152602001908152602001600020549050919050565b80600460003373ffffffffffffffffffffffffffffffffffffffff1673ffffffffffffffffffffffffffffffffffffffff168152602001908152602001600020600082825401925050819055508060036000828254019250508190555050565b600081600460003373ffffffffffffffffffffffffffffffffffffffff1673ffffffffffffffffffffffffffffffffffffffff168152602001908152602001600020541115156109e957600080fd5b81600460003373ffffffffffffffffffffffffffffffffffffffff1673ffffffffffffffffffffffffffffffffffffffff1681526020019081526020016000206000828254039250508190555081600460008573ffffffffffffffffffffffffffffffffffffffff1673ffffffffffffffffffffffffffffffffffffffff168152602001908152602001600020600082825401925050819055508273ffffffffffffffffffffffffffffffffffffffff163373ffffffffffffffffffffffffffffffffffffffff167fddf252ad1be2c89b69c2b068fc378daa952ba7f163c4a11628f55a4df523b3ef846040518082815260200191505060405180910390a36001905092915050565b6000600354905090565b6000600560008473ffffffffffffffffffffffffffffffffffffffff1673ffffffffffffffffffffffffffffffffffffffff16815260200190815260200160002060008373ffffffffffffffffffffffffffffffffffffffff1673ffffffffffffffffffffffffffffffffffffffff168152602001908152602001600020549050929150505600a165627a7a723058204b6ac92333de3090756fdfcbe17136ef724c5b657472adbc7683170b22aa02490029a165627a7a723058200dc1113f2dfb01b4a6bafec3852df802aa508c8eb91cd00bb6c6fb91235611230029606060405260056000806101000a81548160ff021916908360ff160217905550603c600255341561002f57600080fd5b600060405180591061003e5750595b9080825280602002602001820160405250600190805190602001906100649291906100a2565b506000600460006101000a81548160ff021916908360ff1602179055506000600460016101000a81548160ff021916908360ff16021790555061016f565b82805482825590600052602060002090810192821561011b579160200282015b8281111561011a5782518260006101000a81548173ffffffffffffffffffffffffffffffffffffffff021916908373ffffffffffffffffffffffffffffffffffffffff160217905550916020019190600101906100c2565b5b509050610128919061012c565b5090565b61016c91905b8082111561016857600081816101000a81549073ffffffffffffffffffffffffffffffffffffffff021916905550600101610132565b5090565b90565b6107688061017e6000396000f300606060405260043610610083576000357c0100000000000000000000000000000000000000000000000000000000900463ffffffff1680631e223143146100885780633e3c9eae146100dd5780638f807f6b1461010c578063957908d11461015d578063ad7d59fc14610172578063e0c6190d146101a1578063f2a75fe4146101ce575b600080fd5b341561009357600080fd5b61009b6101fb565b604051808273ffffffffffffffffffffffffffffffffffffffff1673ffffffffffffffffffffffffffffffffffffffff16815260200191505060405180910390f35b34156100e857600080fd5b6100f0610266565b604051808260ff1660ff16815260200191505060405180910390f35b341561011757600080fd5b610143600480803573ffffffffffffffffffffffffffffffffffffffff169060200190919050506102c4565b604051808215151515815260200191505060405180910390f35b341561016857600080fd5b610170610403565b005b341561017d57600080fd5b610185610587565b604051808260ff1660ff16815260200191505060405180910390f35b34156101ac57600080fd5b6101b4610666565b604051808215151515815260200191505060405180910390f35b34156101d957600080fd5b6101e16106d7565b604051808215151515815260200191505060405180910390f35b60006102056106d7565b156102135760009050610263565b6001600460009054906101000a900460ff1660ff1681548110151561023457fe5b906000526020600020900160009054906101000a900473ffffffffffffffffffffffffffffffffffffffff1690505b90565b6000600460009054906101000a900460ff1660ff16600460019054906101000a900460ff1660ff16141561029d57600090506102c1565b600460009054906101000a900460ff16600460019054906101000a900460ff160390505b90565b600060056102d0610266565b60ff161015156102df57600080fd5b6001600460018282829054906101000a900460ff160192506101000a81548160ff021916908360ff1602179055506001805480600101828161032191906106eb565b9160005260206000209001600084909190916101000a81548173ffffffffffffffffffffffffffffffffffffffff021916908373ffffffffffffffffffffffffffffffffffffffff160217905550506103786106d7565b1561038557426003819055505b7fcc76729e93ab86350539029d40df62d39ea2004e656c82c318d7949b59b3997d826103af610266565b604051808373ffffffffffffffffffffffffffffffffffffffff1673ffffffffffffffffffffffffffffffffffffffff1681526020018260ff1681526020019250505060405180910390a160019050919050565b61040b6106d7565b15151561041757600080fd5b7fe025626f458e0ac51c2d0d3895c2df8363af161a054a4183387a53e3d721f0a36001600460009054906101000a900460ff1660ff1681548110151561045957fe5b906000526020600020900160009054906101000a900473ffffffffffffffffffffffffffffffffffffffff16604051808273ffffffffffffffffffffffffffffffffffffffff1673ffffffffffffffffffffffffffffffffffffffff16815260200191505060405180910390a16001600460009054906101000a900460ff1660ff168154811015156104e757fe5b906000526020600020900160006101000a81549073ffffffffffffffffffffffffffffffffffffffff02191690556001600460008282829054906101000a900460ff160192506101000a81548160ff021916908360ff16021790555061054b6106d7565b151561055957426003819055505b7ffd27e0101f030dc5af5070d09ade0c41ac936bc0cb9281e395597bbad2df3a9b60405160405180910390a1565b600080600460009054906101000a900460ff1690505b600460009054906101000a900460ff166105b5610266565b0160ff168160ff16101561065d5760018160ff168154811015156105d557fe5b906000526020600020900160009054906101000a900473ffffffffffffffffffffffffffffffffffffffff1673ffffffffffffffffffffffffffffffffffffffff163373ffffffffffffffffffffffffffffffffffffffff16141561065057600460009054906101000a900460ff1660018201039150610662565b808060010191505061059d565b600091505b5090565b60006106706106d7565b15801561068257506003544203600254105b151561068d57600080fd5b7f0c4a3338d73d6047ad9cd506e8e98a569840b955cdbf20806a98e628ba7f107060035442036040518082815260200191505060405180910390a16106d0610403565b6001905090565b6000806106e2610266565b60ff1614905090565b815481835581811511610712578183600052602060002091820191016107119190610717565b5b505050565b61073991905b8082111561073557600081600090555060010161071d565b5090565b905600a165627a7a723058201262a13e833eaf427251ccbbed63a14d799795beb240485586550dc93a1cd61d0029",
  "source": "pragma solidity ^0.4.15;\n\nimport './Queue.sol';\nimport './Token.sol';\n\n/**\n * @title Crowdsale\n * @dev Contract that deploys `Token.sol`\n * Is timelocked, manages buyer queue, updates balances on `Token.sol`\n */\n\ncontract Crowdsale {\n\n    address owner;\n    Queue queue;\n    Token token;\n    bool started;\n    uint startTime;\n    uint endTime;\n    uint pricePerWei;\n    uint balance;\n    uint tokensSold;\n\n    mapping(address => uint) amountToBuy;\n\n    function Crowdsale() public {\n        owner = msg.sender;\n        queue = new Queue();\n        started = false;\n        balance = 0;\n        tokensSold = 0;\n    }\n\n    event TokenDeployed(uint _totalSupply, address _token);\n\n    modifier onlyOwner {\n        require(msg.sender == owner);\n        _;\n    }\n\n    function getQueue() public returns (Queue) {\n        return queue;\n    }\n\n    function deployToken(uint _totalSupply, uint _endTime, uint _pricePerWei) public onlyOwner() {\n        token = new Token(_totalSupply);\n        TokenDeployed(_totalSupply, token);\n        started = true;\n        startTime = now;\n        endTime = _endTime * 1 minutes;\n        pricePerWei = _pricePerWei;\n    }\n\n    // Creation of new tokens\n    function mintTokens(uint _mintedAmount) public onlyOwner() {\n        require(started);\n        token.mintTokens(_mintedAmount);\n    }\n\n    // Burn tokens not sold\n    function burnTokens(uint _burnedTokens) public onlyOwner() {\n        require(started);\n        token.burnTokens(_burnedTokens);\n    }\n\n    // Must be able to receive funds from contract after the sale is over\n    function receiveFunds() public payable onlyOwner() {\n        balance += msg.value;\n    }\n\n    // Buyers waiting in line must make sure they are not the last person \n    // in line: you must have someone behind you to place a token \n    \n    function buyTokens() public payable {\n        require(queue.enqueue(msg.sender));\n        amountToBuy[msg.sender] = msg.value / pricePerWei;\n        uint place = queue.checkPlace();\n        balance += msg.value;\n        // if first in queue, empty queue\n        if (place == 2 && !queue.checkTime()) {\n            // if second in queue\n            // buy tokens for first in queue\n            token.transfer(queue.getFirst(), amountToBuy[msg.sender]);\n            // else first deleted, wait for the next\n        }\n    }\n\n    function getTokenSupply() public returns (uint) {\n        return token.getTotalSupply();\n    }\n}\n",
  "sourcePath": "/mnt/c/Users/esteb/Documents/BaB/BlockchainForDevelopers/sp18-midterm-p1/contracts/Crowdsale.sol",
  "compiler": {
    "name": "solc",
    "version": "0.4.19+commit.c4cbbb05.Emscripten.clang"
  },
  "schemaVersion": "1.0.1",
  "updatedAt": "2018-03-08T01:24:44.970Z"
}