{
  "contractName": "Crowdsale",
  "abi": [
    {
      "inputs": [],
      "payable": false,
      "stateMutability": "nonpayable",
      "type": "constructor"
    },
    {
      "payable": true,
      "stateMutability": "payable",
      "type": "fallback"
    },
    {
      "anonymous": false,
      "inputs": [
        {
          "indexed": false,
          "name": "_totalSupply",
          "type": "uint256"
        },
        {
          "indexed": false,
          "name": "_token",
          "type": "address"
        }
      ],
      "name": "TokenDeployed",
      "type": "event"
    },
    {
      "anonymous": false,
      "inputs": [
        {
          "indexed": false,
          "name": "_burnedTokens",
          "type": "uint256"
        }
      ],
      "name": "BurnTokens",
      "type": "event"
    },
    {
      "anonymous": false,
      "inputs": [
        {
          "indexed": false,
          "name": "_place",
          "type": "uint256"
        }
      ],
      "name": "MoreThanTwoInQueue",
      "type": "event"
    },
    {
      "anonymous": false,
      "inputs": [
        {
          "indexed": false,
          "name": "_i",
          "type": "uint256"
        },
        {
          "indexed": false,
          "name": "_amount",
          "type": "uint256"
        }
      ],
      "name": "TryingToBuyFor",
      "type": "event"
    },
    {
      "anonymous": false,
      "inputs": [
        {
          "indexed": false,
          "name": "_doingTransfer",
          "type": "bool"
        }
      ],
      "name": "DoingTransfer",
      "type": "event"
    },
    {
      "anonymous": false,
      "inputs": [
        {
          "indexed": false,
          "name": "_refundAddress",
          "type": "address"
        },
        {
          "indexed": false,
          "name": "_refundAmount",
          "type": "uint256"
        }
      ],
      "name": "TryingToRefund",
      "type": "event"
    },
    {
      "constant": true,
      "inputs": [],
      "name": "getTokenTotalSupply",
      "outputs": [
        {
          "name": "",
          "type": "uint256"
        }
      ],
      "payable": false,
      "stateMutability": "view",
      "type": "function"
    },
    {
      "constant": false,
      "inputs": [
        {
          "name": "_totalSupply",
          "type": "uint256"
        },
        {
          "name": "_gapTime",
          "type": "uint256"
        },
        {
          "name": "_pricePerWei",
          "type": "uint256"
        }
      ],
      "name": "deployToken",
      "outputs": [],
      "payable": false,
      "stateMutability": "nonpayable",
      "type": "function"
    },
    {
      "constant": false,
      "inputs": [
        {
          "name": "_mintedAmount",
          "type": "uint256"
        }
      ],
      "name": "mintTokens",
      "outputs": [],
      "payable": false,
      "stateMutability": "nonpayable",
      "type": "function"
    },
    {
      "constant": false,
      "inputs": [
        {
          "name": "_burnedTokens",
          "type": "uint256"
        }
      ],
      "name": "burnTokens",
      "outputs": [],
      "payable": false,
      "stateMutability": "nonpayable",
      "type": "function"
    },
    {
      "constant": false,
      "inputs": [],
      "name": "receiveFunds",
      "outputs": [],
      "payable": true,
      "stateMutability": "payable",
      "type": "function"
    },
    {
      "constant": false,
      "inputs": [],
      "name": "refund",
      "outputs": [],
      "payable": true,
      "stateMutability": "payable",
      "type": "function"
    },
    {
      "constant": false,
      "inputs": [],
      "name": "refundQueue",
      "outputs": [],
      "payable": false,
      "stateMutability": "nonpayable",
      "type": "function"
    },
    {
      "constant": false,
      "inputs": [],
      "name": "buyTokens",
      "outputs": [],
      "payable": true,
      "stateMutability": "payable",
      "type": "function"
    },
    {
      "constant": true,
      "inputs": [],
      "name": "getMyBalance",
      "outputs": [
        {
          "name": "",
          "type": "uint256"
        }
      ],
      "payable": false,
      "stateMutability": "view",
      "type": "function"
    },
    {
      "constant": true,
      "inputs": [],
      "name": "getTokenOwner",
      "outputs": [
        {
          "name": "",
          "type": "address"
        }
      ],
      "payable": false,
      "stateMutability": "view",
      "type": "function"
    },
    {
      "constant": true,
      "inputs": [],
      "name": "getTokensSold",
      "outputs": [
        {
          "name": "",
          "type": "uint256"
        }
      ],
      "payable": false,
      "stateMutability": "view",
      "type": "function"
    }
  ],
  "bytecode": "0x6060604052341561000f57600080fd5b336000806101000a81548173ffffffffffffffffffffffffffffffffffffffff021916908373ffffffffffffffffffffffffffffffffffffffff1602179055506000600260146101000a81548160ff0219169083151502179055506000600581905550600060068190555061326f806100896000396000f3006060604052600436106100ae576000357c0100000000000000000000000000000000000000000000000000000000900463ffffffff1680625c33e1146100f35780634c738909146100fd57806350cc62d61461012657806357df844b1461015b578063590e1ae3146101845780636d1b229d1461018e57806397304ced146101b1578063b7182b95146101d4578063d0febe4c14610229578063ee7c0db014610233578063fe1787631461025c575b3373ffffffffffffffffffffffffffffffffffffffff166108fc349081150290604051600060405180830381858888f1935050505015156100ee57600080fd5b600080fd5b6100fb610271565b005b341561010857600080fd5b6101106102de565b6040518082815260200191505060405180910390f35b341561013157600080fd5b61015960048080359060200190919080359060200190919080359060200190919050506103e0565b005b341561016657600080fd5b61016e6105cf565b6040518082815260200191505060405180910390f35b61018c61067f565b005b341561019957600080fd5b6101af600480803590602001909190505061085a565b005b34156101bc57600080fd5b6101d26004808035906020019091905050610a9e565b005b34156101df57600080fd5b6101e7610bbb565b604051808273ffffffffffffffffffffffffffffffffffffffff1673ffffffffffffffffffffffffffffffffffffffff16815260200191505060405180910390f35b610231610c6b565b005b341561023e57600080fd5b6102466114b5565b6040518082815260200191505060405180910390f35b341561026757600080fd5b61026f6114bf565b005b6000809054906101000a900473ffffffffffffffffffffffffffffffffffffffff1673ffffffffffffffffffffffffffffffffffffffff163373ffffffffffffffffffffffffffffffffffffffff161415156102cc57600080fd5b34600560008282540192505081905550565b6000600260149054906101000a900460ff1615156102fb57600080fd5b600260009054906101000a900473ffffffffffffffffffffffffffffffffffffffff1673ffffffffffffffffffffffffffffffffffffffff166370a08231336000604051602001526040518263ffffffff167c0100000000000000000000000000000000000000000000000000000000028152600401808273ffffffffffffffffffffffffffffffffffffffff1673ffffffffffffffffffffffffffffffffffffffff168152602001915050602060405180830381600087803b15156103c057600080fd5b6102c65a03f115156103d157600080fd5b50505060405180519050905090565b6000809054906101000a900473ffffffffffffffffffffffffffffffffffffffff1673ffffffffffffffffffffffffffffffffffffffff163373ffffffffffffffffffffffffffffffffffffffff1614151561043b57600080fd5b82610444611703565b80828152602001915050604051809103906000f080151561046457600080fd5b600260006101000a81548173ffffffffffffffffffffffffffffffffffffffff021916908373ffffffffffffffffffffffffffffffffffffffff1602179055507fb0886d5b89c3540effacb4587a5c495172ace26a507fef96fb8ccb8376ae9df583600260009054906101000a900473ffffffffffffffffffffffffffffffffffffffff16604051808381526020018273ffffffffffffffffffffffffffffffffffffffff1673ffffffffffffffffffffffffffffffffffffffff1681526020019250505060405180910390a16001600260146101000a81548160ff0219169083151502179055508160038190555042600781905550806004819055508161056a611713565b80828152602001915050604051809103906000f080151561058a57600080fd5b600160006101000a81548173ffffffffffffffffffffffffffffffffffffffff021916908373ffffffffffffffffffffffffffffffffffffffff160217905550505050565b6000600260009054906101000a900473ffffffffffffffffffffffffffffffffffffffff1673ffffffffffffffffffffffffffffffffffffffff166318160ddd6000604051602001526040518163ffffffff167c0100000000000000000000000000000000000000000000000000000000028152600401602060405180830381600087803b151561065f57600080fd5b6102c65a03f1151561067057600080fd5b50505060405180519050905090565b60006003546007544203108015610697575060075442115b15156106a257600080fd5b600260009054906101000a900473ffffffffffffffffffffffffffffffffffffffff1673ffffffffffffffffffffffffffffffffffffffff1663fa89401a336000604051602001526040518263ffffffff167c0100000000000000000000000000000000000000000000000000000000028152600401808273ffffffffffffffffffffffffffffffffffffffff1673ffffffffffffffffffffffffffffffffffffffff168152602001915050602060405180830381600087803b151561076757600080fd5b6102c65a03f1151561077857600080fd5b5050506040518051905090507f626fd95944e22ab4dfa7acc7b3b3de6db283062a2ca52cef9ffa6627ba8e94d43382604051808373ffffffffffffffffffffffffffffffffffffffff1673ffffffffffffffffffffffffffffffffffffffff1681526020018281526020019250505060405180910390a1806006600082825403925050819055503373ffffffffffffffffffffffffffffffffffffffff166108fc60045483029081150290604051600060405180830381858888f19350505050151561084357600080fd5b600454810260056000828254039250508190555050565b6000809054906101000a900473ffffffffffffffffffffffffffffffffffffffff1673ffffffffffffffffffffffffffffffffffffffff163373ffffffffffffffffffffffffffffffffffffffff161415156108b557600080fd5b600260149054906101000a900460ff1615156108d057600080fd5b600260009054906101000a900473ffffffffffffffffffffffffffffffffffffffff1673ffffffffffffffffffffffffffffffffffffffff16636d1b229d826000604051602001526040518263ffffffff167c010000000000000000000000000000000000000000000000000000000002815260040180828152602001915050602060405180830381600087803b151561096957600080fd5b6102c65a03f1151561097a57600080fd5b50505060405180519050507f2cd3fd70cd5a5d6d805e90d22741aa1a84590ace7cf01b244719558d26614382600260009054906101000a900473ffffffffffffffffffffffffffffffffffffffff1673ffffffffffffffffffffffffffffffffffffffff166370a08231336000604051602001526040518263ffffffff167c0100000000000000000000000000000000000000000000000000000000028152600401808273ffffffffffffffffffffffffffffffffffffffff1673ffffffffffffffffffffffffffffffffffffffff168152602001915050602060405180830381600087803b1515610a6b57600080fd5b6102c65a03f11515610a7c57600080fd5b505050604051805190506040518082815260200191505060405180910390a150565b6000809054906101000a900473ffffffffffffffffffffffffffffffffffffffff1673ffffffffffffffffffffffffffffffffffffffff163373ffffffffffffffffffffffffffffffffffffffff16141515610af957600080fd5b600260149054906101000a900460ff161515610b1457600080fd5b600260009054906101000a900473ffffffffffffffffffffffffffffffffffffffff1673ffffffffffffffffffffffffffffffffffffffff166397304ced826040518263ffffffff167c010000000000000000000000000000000000000000000000000000000002815260040180828152602001915050600060405180830381600087803b1515610ba457600080fd5b6102c65a03f11515610bb557600080fd5b50505050565b6000600260009054906101000a900473ffffffffffffffffffffffffffffffffffffffff1673ffffffffffffffffffffffffffffffffffffffff16638da5cb5b6000604051602001526040518163ffffffff167c0100000000000000000000000000000000000000000000000000000000028152600401602060405180830381600087803b1515610c4b57600080fd5b6102c65a03f11515610c5c57600080fd5b50505060405180519050905090565b600080600160009054906101000a900473ffffffffffffffffffffffffffffffffffffffff1673ffffffffffffffffffffffffffffffffffffffff16638f807f6b336000604051602001526040518263ffffffff167c0100000000000000000000000000000000000000000000000000000000028152600401808273ffffffffffffffffffffffffffffffffffffffff1673ffffffffffffffffffffffffffffffffffffffff168152602001915050602060405180830381600087803b1515610d3357600080fd5b6102c65a03f11515610d4457600080fd5b505050604051805190501515610d5957600080fd5b60045434811515610d6657fe5b04600860003373ffffffffffffffffffffffffffffffffffffffff1673ffffffffffffffffffffffffffffffffffffffff16815260200190815260200160002081905550600160009054906101000a900473ffffffffffffffffffffffffffffffffffffffff1673ffffffffffffffffffffffffffffffffffffffff16636b4cc50b336000604051602001526040518263ffffffff167c0100000000000000000000000000000000000000000000000000000000028152600401808273ffffffffffffffffffffffffffffffffffffffff1673ffffffffffffffffffffffffffffffffffffffff168152602001915050602060405180830381600087803b1515610e6f57600080fd5b6102c65a03f11515610e8057600080fd5b5050506040518051905060ff169150346005600082825401925050819055506002821015156114b1577f23fb0d5835c22721403b056422b90d7cf91ef59f79e050e95fd56f0edf4bec7e826040518082815260200191505060405180910390a1600090505b600182038110156114b0577f19428c26e53871385ee05de04cff011a4b07b7c63048c24e53346c8c331ed80f81600860003373ffffffffffffffffffffffffffffffffffffffff1673ffffffffffffffffffffffffffffffffffffffff16815260200190815260200160002054604051808381526020018281526020019250505060405180910390a1600160009054906101000a900473ffffffffffffffffffffffffffffffffffffffff1673ffffffffffffffffffffffffffffffffffffffff1663e0c6190d6000604051602001526040518163ffffffff167c0100000000000000000000000000000000000000000000000000000000028152600401602060405180830381600087803b1515610ffc57600080fd5b6102c65a03f1151561100d57600080fd5b505050604051805190501515611466577f10e3bd45823e08f7fb55c51e707ebf70855e45d047056b13953cad056a3cf8536001604051808215151515815260200191505060405180910390a1600260009054906101000a900473ffffffffffffffffffffffffffffffffffffffff1673ffffffffffffffffffffffffffffffffffffffff1663a9059cbb600160009054906101000a900473ffffffffffffffffffffffffffffffffffffffff1673ffffffffffffffffffffffffffffffffffffffff16631e2231436000604051602001526040518163ffffffff167c0100000000000000000000000000000000000000000000000000000000028152600401602060405180830381600087803b151561112557600080fd5b6102c65a03f1151561113657600080fd5b5050506040518051905060086000600160009054906101000a900473ffffffffffffffffffffffffffffffffffffffff1673ffffffffffffffffffffffffffffffffffffffff16631e2231436000604051602001526040518163ffffffff167c0100000000000000000000000000000000000000000000000000000000028152600401602060405180830381600087803b15156111d257600080fd5b6102c65a03f115156111e357600080fd5b5050506040518051905073ffffffffffffffffffffffffffffffffffffffff1673ffffffffffffffffffffffffffffffffffffffff168152602001908152602001600020546000604051602001526040518363ffffffff167c0100000000000000000000000000000000000000000000000000000000028152600401808373ffffffffffffffffffffffffffffffffffffffff1673ffffffffffffffffffffffffffffffffffffffff16815260200182815260200192505050602060405180830381600087803b15156112b557600080fd5b6102c65a03f115156112c657600080fd5b505050604051805190505060086000600160009054906101000a900473ffffffffffffffffffffffffffffffffffffffff1673ffffffffffffffffffffffffffffffffffffffff16631e2231436000604051602001526040518163ffffffff167c0100000000000000000000000000000000000000000000000000000000028152600401602060405180830381600087803b151561136357600080fd5b6102c65a03f1151561137457600080fd5b5050506040518051905073ffffffffffffffffffffffffffffffffffffffff1673ffffffffffffffffffffffffffffffffffffffff16815260200190815260200160002054600660008282540192505081905550600160009054906101000a900473ffffffffffffffffffffffffffffffffffffffff1673ffffffffffffffffffffffffffffffffffffffff1663957908d16040518163ffffffff167c0100000000000000000000000000000000000000000000000000000000028152600401600060405180830381600087803b151561144d57600080fd5b6102c65a03f1151561145e57600080fd5b5050506114a3565b7f10e3bd45823e08f7fb55c51e707ebf70855e45d047056b13953cad056a3cf8536000604051808215151515815260200191505060405180910390a15b8080600101915050610ee5565b5b5050565b6000600654905090565b600060035460075442031115156114d557600080fd5b600160009054906101000a900473ffffffffffffffffffffffffffffffffffffffff1673ffffffffffffffffffffffffffffffffffffffff16631e2231436000604051602001526040518163ffffffff167c0100000000000000000000000000000000000000000000000000000000028152600401602060405180830381600087803b151561156357600080fd5b6102c65a03f1151561157457600080fd5b5050506040518051905090507f626fd95944e22ab4dfa7acc7b3b3de6db283062a2ca52cef9ffa6627ba8e94d481600860008473ffffffffffffffffffffffffffffffffffffffff1673ffffffffffffffffffffffffffffffffffffffff16815260200190815260200160002054604051808373ffffffffffffffffffffffffffffffffffffffff1673ffffffffffffffffffffffffffffffffffffffff1681526020018281526020019250505060405180910390a18073ffffffffffffffffffffffffffffffffffffffff166108fc600454600860008573ffffffffffffffffffffffffffffffffffffffff1673ffffffffffffffffffffffffffffffffffffffff16815260200190815260200160002054029081150290604051600060405180830381858888f1935050505015156116ad57600080fd5b600454600860008373ffffffffffffffffffffffffffffffffffffffff1673ffffffffffffffffffffffffffffffffffffffff168152602001908152602001600020540260056000828254039250508190555050565b6040516111e98061172483390190565b6040516109378061290d8339019056006060604052341561000f57600080fd5b6040516020806111e98339810160405280805190602001909190505033600460006101000a81548173ffffffffffffffffffffffffffffffffffffffff021916908373ffffffffffffffffffffffffffffffffffffffff1602179055508060056000600460009054906101000a900473ffffffffffffffffffffffffffffffffffffffff1673ffffffffffffffffffffffffffffffffffffffff1673ffffffffffffffffffffffffffffffffffffffff16815260200190815260200160002081905550806003819055507f10e8ab53866dbf444b164da1c9d4531e71008f9bc55e85ab2302f97f862389be60056000600460009054906101000a900473ffffffffffffffffffffffffffffffffffffffff1673ffffffffffffffffffffffffffffffffffffffff1673ffffffffffffffffffffffffffffffffffffffff168152602001908152602001600020546040518082815260200191505060405180910390a150611068806101816000396000f3006060604052600436106100c5576000357c0100000000000000000000000000000000000000000000000000000000900463ffffffff16806306fdde031461010a578063095ea7b31461019857806318160ddd146101f257806323b872dd1461021b5780636d1b229d1461029457806370a08231146102cf5780638da5cb5b1461031c57806395d89b411461037157806397304ced146103ff578063a9059cbb14610422578063c4e41b221461047c578063dd62ed3e146104a5578063fa89401a14610511575b3373ffffffffffffffffffffffffffffffffffffffff166108fc349081150290604051600060405180830381858888f19350505050151561010557600080fd5b600080fd5b341561011557600080fd5b61011d610553565b6040518080602001828103825283818151815260200191508051906020019080838360005b8381101561015d578082015181840152602081019050610142565b50505050905090810190601f16801561018a5780820380516001836020036101000a031916815260200191505b509250505060405180910390f35b34156101a357600080fd5b6101d8600480803573ffffffffffffffffffffffffffffffffffffffff169060200190919080359060200190919050506105f1565b604051808215151515815260200191505060405180910390f35b34156101fd57600080fd5b6102056106e3565b6040518082815260200191505060405180910390f35b341561022657600080fd5b61027a600480803573ffffffffffffffffffffffffffffffffffffffff1690602001909190803573ffffffffffffffffffffffffffffffffffffffff169060200190919080359060200190919050506106ed565b604051808215151515815260200191505060405180910390f35b341561029f57600080fd5b6102b56004808035906020019091905050610987565b604051808215151515815260200191505060405180910390f35b34156102da57600080fd5b610306600480803573ffffffffffffffffffffffffffffffffffffffff16906020019091905050610a8b565b6040518082815260200191505060405180910390f35b341561032757600080fd5b61032f610b4a565b604051808273ffffffffffffffffffffffffffffffffffffffff1673ffffffffffffffffffffffffffffffffffffffff16815260200191505060405180910390f35b341561037c57600080fd5b610384610b74565b6040518080602001828103825283818151815260200191508051906020019080838360005b838110156103c45780820151818401526020810190506103a9565b50505050905090810190601f1680156103f15780820380516001836020036101000a031916815260200191505b509250505060405180910390f35b341561040a57600080fd5b6104206004808035906020019091905050610c12565b005b341561042d57600080fd5b610462600480803573ffffffffffffffffffffffffffffffffffffffff16906020019091908035906020019091905050610c72565b604051808215151515815260200191505060405180910390f35b341561048757600080fd5b61048f610e57565b6040518082815260200191505060405180910390f35b34156104b057600080fd5b6104fb600480803573ffffffffffffffffffffffffffffffffffffffff1690602001909190803573ffffffffffffffffffffffffffffffffffffffff16906020019091905050610e61565b6040518082815260200191505060405180910390f35b61053d600480803573ffffffffffffffffffffffffffffffffffffffff16906020019091905050610ee8565b6040518082815260200191505060405180910390f35b60018054600181600116156101000203166002900480601f0160208091040260200160405190810160405280929190818152602001828054600181600116156101000203166002900480156105e95780601f106105be576101008083540402835291602001916105e9565b820191906000526020600020905b8154815290600101906020018083116105cc57829003601f168201915b505050505081565b600081600660003373ffffffffffffffffffffffffffffffffffffffff1673ffffffffffffffffffffffffffffffffffffffff16815260200190815260200160002060008573ffffffffffffffffffffffffffffffffffffffff1673ffffffffffffffffffffffffffffffffffffffff168152602001908152602001600020819055508273ffffffffffffffffffffffffffffffffffffffff163373ffffffffffffffffffffffffffffffffffffffff167f8c5be1e5ebec7d5bd14f71427d1e84f3dd0314c0f7b2291e5b200ac8c7c3b925846040518082815260200191505060405180910390a36001905092915050565b6000600354905090565b600080600660008673ffffffffffffffffffffffffffffffffffffffff1673ffffffffffffffffffffffffffffffffffffffff16815260200190815260200160002060003373ffffffffffffffffffffffffffffffffffffffff1673ffffffffffffffffffffffffffffffffffffffff16815260200190815260200160002054905082600560008773ffffffffffffffffffffffffffffffffffffffff1673ffffffffffffffffffffffffffffffffffffffff16815260200190815260200160002054101580156107be5750828110155b15156107c957600080fd5b82600560008673ffffffffffffffffffffffffffffffffffffffff1673ffffffffffffffffffffffffffffffffffffffff1681526020019081526020016000206000828254019250508190555082600560008773ffffffffffffffffffffffffffffffffffffffff1673ffffffffffffffffffffffffffffffffffffffff168152602001908152602001600020600082825403925050819055507fffffffffffffffffffffffffffffffffffffffffffffffffffffffffffffffff8110156109165782600660008773ffffffffffffffffffffffffffffffffffffffff1673ffffffffffffffffffffffffffffffffffffffff16815260200190815260200160002060003373ffffffffffffffffffffffffffffffffffffffff1673ffffffffffffffffffffffffffffffffffffffff168152602001908152602001600020600082825403925050819055505b8373ffffffffffffffffffffffffffffffffffffffff168573ffffffffffffffffffffffffffffffffffffffff167fddf252ad1be2c89b69c2b068fc378daa952ba7f163c4a11628f55a4df523b3ef856040518082815260200191505060405180910390a360019150509392505050565b600081600560003373ffffffffffffffffffffffffffffffffffffffff1673ffffffffffffffffffffffffffffffffffffffff16815260200190815260200160002054101515156109d757600080fd5b81600560003373ffffffffffffffffffffffffffffffffffffffff1673ffffffffffffffffffffffffffffffffffffffff16815260200190815260200160002060008282540392505081905550816003600082825403925050819055503373ffffffffffffffffffffffffffffffffffffffff167f696de425f79f4a40bc6d2122ca50507f0efbeabbff86a84871b7196ab8ea8df7836040518082815260200191505060405180910390a260019050919050565b60007fa61b9074c2915c8fb312170d3d90d01021c6badd46321b8109ba1d0ed098bec0600560008473ffffffffffffffffffffffffffffffffffffffff1673ffffffffffffffffffffffffffffffffffffffff168152602001908152602001600020546040518082815260200191505060405180910390a1600560008373ffffffffffffffffffffffffffffffffffffffff1673ffffffffffffffffffffffffffffffffffffffff168152602001908152602001600020549050919050565b6000600460009054906101000a900473ffffffffffffffffffffffffffffffffffffffff16905090565b60028054600181600116156101000203166002900480601f016020809104026020016040519081016040528092919081815260200182805460018160011615610100020316600290048015610c0a5780601f10610bdf57610100808354040283529160200191610c0a565b820191906000526020600020905b815481529060010190602001808311610bed57829003601f168201915b505050505081565b80600560003373ffffffffffffffffffffffffffffffffffffffff1673ffffffffffffffffffffffffffffffffffffffff168152602001908152602001600020600082825401925050819055508060036000828254019250508190555050565b60007f1d72140a7ccdb496bef50918d2598dd7edefb514f70e6d4beb528cbd16c80b7d8383604051808373ffffffffffffffffffffffffffffffffffffffff1673ffffffffffffffffffffffffffffffffffffffff1681526020018281526020019250505060405180910390a181600560003373ffffffffffffffffffffffffffffffffffffffff1673ffffffffffffffffffffffffffffffffffffffff16815260200190815260200160002054111515610d2c57600080fd5b81600560003373ffffffffffffffffffffffffffffffffffffffff1673ffffffffffffffffffffffffffffffffffffffff1681526020019081526020016000206000828254039250508190555081600560008573ffffffffffffffffffffffffffffffffffffffff1673ffffffffffffffffffffffffffffffffffffffff168152602001908152602001600020600082825401925050819055508273ffffffffffffffffffffffffffffffffffffffff16600460009054906101000a900473ffffffffffffffffffffffffffffffffffffffff1673ffffffffffffffffffffffffffffffffffffffff167fddf252ad1be2c89b69c2b068fc378daa952ba7f163c4a11628f55a4df523b3ef846040518082815260200191505060405180910390a36001905092915050565b6000600354905090565b6000600660008473ffffffffffffffffffffffffffffffffffffffff1673ffffffffffffffffffffffffffffffffffffffff16815260200190815260200160002060008373ffffffffffffffffffffffffffffffffffffffff1673ffffffffffffffffffffffffffffffffffffffff16815260200190815260200160002054905092915050565b6000806000600560008573ffffffffffffffffffffffffffffffffffffffff1673ffffffffffffffffffffffffffffffffffffffff16815260200190815260200160002054111561103157600560008473ffffffffffffffffffffffffffffffffffffffff1673ffffffffffffffffffffffffffffffffffffffff1681526020019081526020016000205490506000600560008573ffffffffffffffffffffffffffffffffffffffff1673ffffffffffffffffffffffffffffffffffffffff168152602001908152602001600020819055508060056000600460009054906101000a900473ffffffffffffffffffffffffffffffffffffffff1673ffffffffffffffffffffffffffffffffffffffff1673ffffffffffffffffffffffffffffffffffffffff16815260200190815260200160002060008282540192505081905550809150611036565b600091505b509190505600a165627a7a723058200117afaf691579e39aaaf1edab150ac92ef7ef368e4ac251764628b50b5c12a70029606060405260056000806101000a81548160ff021916908360ff160217905550341561002a57600080fd5b6040516020806109378339810160405280805190602001909190505060006040518059106100555750595b90808252806020026020018201604052506001908051906020019061007b9291906100c4565b506000600460006101000a81548160ff021916908360ff1602179055506000600460016101000a81548160ff021916908360ff160217905550603c810260028190555050610191565b82805482825590600052602060002090810192821561013d579160200282015b8281111561013c5782518260006101000a81548173ffffffffffffffffffffffffffffffffffffffff021916908373ffffffffffffffffffffffffffffffffffffffff160217905550916020019190600101906100e4565b5b50905061014a919061014e565b5090565b61018e91905b8082111561018a57600081816101000a81549073ffffffffffffffffffffffffffffffffffffffff021916905550600101610154565b5090565b90565b610797806101a06000396000f300606060405260043610610083576000357c0100000000000000000000000000000000000000000000000000000000900463ffffffff1680631e223143146100c85780633e3c9eae1461011d5780636b4cc50b1461014c5780638f807f6b1461019f578063957908d1146101f0578063e0c6190d14610205578063f2a75fe414610232575b3373ffffffffffffffffffffffffffffffffffffffff166108fc349081150290604051600060405180830381858888f1935050505015156100c357600080fd5b600080fd5b34156100d357600080fd5b6100db61025f565b604051808273ffffffffffffffffffffffffffffffffffffffff1673ffffffffffffffffffffffffffffffffffffffff16815260200191505060405180910390f35b341561012857600080fd5b6101306102ca565b604051808260ff1660ff16815260200191505060405180910390f35b341561015757600080fd5b610183600480803573ffffffffffffffffffffffffffffffffffffffff16906020019091905050610328565b604051808260ff1660ff16815260200191505060405180910390f35b34156101aa57600080fd5b6101d6600480803573ffffffffffffffffffffffffffffffffffffffff16906020019091905050610409565b604051808215151515815260200191505060405180910390f35b34156101fb57600080fd5b610203610548565b005b341561021057600080fd5b6102186106cc565b604051808215151515815260200191505060405180910390f35b341561023d57600080fd5b610245610706565b604051808215151515815260200191505060405180910390f35b6000610269610706565b1561027757600090506102c7565b6001600460009054906101000a900460ff1660ff1681548110151561029857fe5b906000526020600020900160009054906101000a900473ffffffffffffffffffffffffffffffffffffffff1690505b90565b6000600460009054906101000a900460ff1660ff16600460019054906101000a900460ff1660ff1614156103015760009050610325565b600460009054906101000a900460ff16600460019054906101000a900460ff160390505b90565b600080600460009054906101000a900460ff1690505b600460009054906101000a900460ff166103566102ca565b0160ff168160ff1610156103fe5760018160ff1681548110151561037657fe5b906000526020600020900160009054906101000a900473ffffffffffffffffffffffffffffffffffffffff1673ffffffffffffffffffffffffffffffffffffffff168373ffffffffffffffffffffffffffffffffffffffff1614156103f157600460009054906101000a900460ff1660018201039150610403565b808060010191505061033e565b600091505b50919050565b600060056104156102ca565b60ff1610151561042457600080fd5b61042c610706565b1561043957426003819055505b6001600460018282829054906101000a900460ff160192506101000a81548160ff021916908360ff1602179055506001805480600101828161047b919061071a565b9160005260206000209001600084909190916101000a81548173ffffffffffffffffffffffffffffffffffffffff021916908373ffffffffffffffffffffffffffffffffffffffff160217905550507fcc76729e93ab86350539029d40df62d39ea2004e656c82c318d7949b59b3997d826104f46102ca565b604051808373ffffffffffffffffffffffffffffffffffffffff1673ffffffffffffffffffffffffffffffffffffffff1681526020018260ff1681526020019250505060405180910390a160019050919050565b610550610706565b15151561055c57600080fd5b7fe025626f458e0ac51c2d0d3895c2df8363af161a054a4183387a53e3d721f0a36001600460009054906101000a900460ff1660ff1681548110151561059e57fe5b906000526020600020900160009054906101000a900473ffffffffffffffffffffffffffffffffffffffff16604051808273ffffffffffffffffffffffffffffffffffffffff1673ffffffffffffffffffffffffffffffffffffffff16815260200191505060405180910390a16001600460009054906101000a900460ff1660ff1681548110151561062c57fe5b906000526020600020900160006101000a81549073ffffffffffffffffffffffffffffffffffffffff02191690556001600460008282829054906101000a900460ff160192506101000a81548160ff021916908360ff160217905550610690610706565b151561069e57426003819055505b7ffd27e0101f030dc5af5070d09ade0c41ac936bc0cb9281e395597bbad2df3a9b60405160405180910390a1565b60006106d6610706565b1580156106e857506003544203600254105b156106fe576106f5610548565b60019050610703565b600090505b90565b6000806107116102ca565b60ff1614905090565b815481835581811511610741578183600052602060002091820191016107409190610746565b5b505050565b61076891905b8082111561076457600081600090555060010161074c565b5090565b905600a165627a7a7230582023e3d273ba904e3b74cda4549d58d6088e16bbddd8eb4f3f76c49ab335d6236e0029a165627a7a7230582064da963d9f211f175d1d32a85973c8feb28bee683ae41f2387ed6e2ea30166d60029",
  "source": "pragma solidity ^0.4.15;\n\nimport './Queue.sol';\nimport './Token.sol';\n\n/**\n * @title Crowdsale\n * @dev Contract that deploys `Token.sol`\n * Is timelocked, manages buyer queue, updates balances on `Token.sol`\n */\n\ncontract Crowdsale {\n\n    address owner;\n    Queue queue;\n    Token token;\n    bool started;\n    uint gapTime;\n    uint pricePerWei;\n    uint balance;\n    uint tokensSold;\n    uint initialTime;\n\n    mapping(address => uint) amountToBuy;\n\n    function Crowdsale() public {\n        owner = msg.sender;\n        started = false;\n        balance = 0;\n        tokensSold = 0;\n    }\n\n    event TokenDeployed(uint _totalSupply, address _token);\n    event BurnTokens(uint _burnedTokens);\n    event MoreThanTwoInQueue(uint _place);\n    event TryingToBuyFor(uint _i, uint _amount);\n    event DoingTransfer(bool _doingTransfer);\n    event TryingToRefund(address _refundAddress, uint _refundAmount);\n    \n\n    modifier onlyOwner {\n        require(msg.sender == owner);\n        _;\n    }\n\n    modifier saleNotEnded {\n        require(now - initialTime < gapTime);\n        _;\n    }\n\n    modifier saleEnded() {\n        require(now - initialTime > gapTime);\n        _;\n    }\n\n    modifier inSaleTime() {\n        require(now - initialTime < gapTime && now > initialTime);\n        _;\n    }\n\n    function getTokenTotalSupply() public constant returns (uint) {\n        return token.totalSupply();\n    }\n\n    function deployToken(uint _totalSupply, uint _gapTime, uint _pricePerWei) public onlyOwner() {\n        token = new Token(_totalSupply);\n        TokenDeployed(_totalSupply, token);\n        started = true;\n        gapTime = _gapTime;\n        initialTime = now;\n        pricePerWei = _pricePerWei;\n        queue = new Queue(_gapTime);\n\t\t\n    }\n    \n    // Creation of new tokens\n    function mintTokens(uint _mintedAmount) public onlyOwner() {\n        require(started);\n        token.mintTokens(_mintedAmount);\n    }\n\n    // Burn tokens not sold\n    function burnTokens(uint _burnedTokens) public onlyOwner() {\n        require(started);\n        token.burnTokens(_burnedTokens);\n        BurnTokens(token.balanceOf(msg.sender));\n    }\n\n    // Must be able to receive funds from contract after the sale is over\n    function receiveFunds() public payable onlyOwner() {\n        balance += msg.value;\n    }\n\n    function refund() public payable inSaleTime() {\n        uint refundAmount = token.refund(msg.sender);\n        TryingToRefund(msg.sender, refundAmount);\n        tokensSold -= refundAmount;\n        msg.sender.transfer(refundAmount * pricePerWei);\n        balance -= refundAmount * pricePerWei;\n    }\n\n    function refundQueue() public saleEnded() {\n        address first = queue.getFirst();\n        TryingToRefund(first, amountToBuy[first]);\n        first.transfer(amountToBuy[first] * pricePerWei);\n        balance -= amountToBuy[first] * pricePerWei;\n    }\n\n    // Buyers waiting in line must make sure they are not the last person \n    // in line: you must have someone behind you to place a token \n    \n    function buyTokens() public payable  {\n        require(queue.enqueue(msg.sender));\n        amountToBuy[msg.sender] = msg.value / pricePerWei;\n        uint place = queue.checkPlace(msg.sender);\n        balance += msg.value;\n        // if first in queue, empty queue, do nothing\n\n        // if second in queue, try to buy the first, if pass the time delete it\n        // if third or more, try one and two...\n        if (place >= 2) {\n            MoreThanTwoInQueue(place);\n            for (uint i = 0; i < place-1; i++) {\n                TryingToBuyFor(i, amountToBuy[msg.sender]);\n                if (!queue.checkTime()) {\n                    DoingTransfer(true);\n                    token.transfer(queue.getFirst(), amountToBuy[queue.getFirst()]);    \n                    tokensSold += amountToBuy[queue.getFirst()];\n                    queue.dequeue();\n                } else {\n                    DoingTransfer(false);\n\n                }\n            }\n        }\n    }\n\n    function getMyBalance() public constant returns (uint256) {\n        require(started);        \n        return token.balanceOf(msg.sender);\n    }\n\n\n    function getTokenOwner() public constant returns (address) {\n        return token.owner();\n    }\n\n    function getTokensSold() public constant returns (uint) {\n        return tokensSold;\n    }\n    \n    function () public payable {\n        msg.sender.transfer(msg.value);\n        revert();\n    }\n\n}\n",
  "sourcePath": "/mnt/c/Users/esteb/Documents/BaB/BlockchainForDevelopers/sp18-midterm-p1/contracts/Crowdsale.sol",
  "compiler": {
    "name": "solc",
    "version": "0.4.19+commit.c4cbbb05.Emscripten.clang"
  },
  "schemaVersion": "1.0.1",
  "updatedAt": "2018-03-08T23:13:04.002Z"
}