{
  "contractName": "Queue",
  "abi": [
    {
      "inputs": [],
      "payable": false,
      "stateMutability": "nonpayable",
      "type": "constructor"
    },
    {
      "anonymous": false,
      "inputs": [
        {
          "indexed": false,
          "name": "adr",
          "type": "address"
        },
        {
          "indexed": false,
          "name": "pos",
          "type": "uint256"
        }
      ],
      "name": "Enqueue",
      "type": "event"
    },
    {
      "anonymous": false,
      "inputs": [
        {
          "indexed": false,
          "name": "adr",
          "type": "address"
        }
      ],
      "name": "Dequeue",
      "type": "event"
    },
    {
      "anonymous": false,
      "inputs": [],
      "name": "LastTimeUpdated",
      "type": "event"
    },
    {
      "anonymous": false,
      "inputs": [
        {
          "indexed": false,
          "name": "from",
          "type": "uint256"
        }
      ],
      "name": "CheckTime",
      "type": "event"
    },
    {
      "constant": true,
      "inputs": [],
      "name": "qsize",
      "outputs": [
        {
          "name": "",
          "type": "uint8"
        }
      ],
      "payable": false,
      "stateMutability": "view",
      "type": "function"
    },
    {
      "constant": true,
      "inputs": [],
      "name": "empty",
      "outputs": [
        {
          "name": "",
          "type": "bool"
        }
      ],
      "payable": false,
      "stateMutability": "view",
      "type": "function"
    },
    {
      "constant": true,
      "inputs": [],
      "name": "getFirst",
      "outputs": [
        {
          "name": "",
          "type": "address"
        }
      ],
      "payable": false,
      "stateMutability": "view",
      "type": "function"
    },
    {
      "constant": true,
      "inputs": [],
      "name": "checkPlace",
      "outputs": [
        {
          "name": "",
          "type": "uint8"
        }
      ],
      "payable": false,
      "stateMutability": "view",
      "type": "function"
    },
    {
      "constant": false,
      "inputs": [],
      "name": "checkTime",
      "outputs": [],
      "payable": false,
      "stateMutability": "nonpayable",
      "type": "function"
    },
    {
      "constant": false,
      "inputs": [],
      "name": "dequeue",
      "outputs": [],
      "payable": false,
      "stateMutability": "nonpayable",
      "type": "function"
    },
    {
      "constant": false,
      "inputs": [
        {
          "name": "addr",
          "type": "address"
        }
      ],
      "name": "enqueue",
      "outputs": [],
      "payable": false,
      "stateMutability": "nonpayable",
      "type": "function"
    }
  ],
  "bytecode": "0x606060405260056000806101000a81548160ff021916908360ff160217905550603c600255341561002f57600080fd5b600060405180591061003e5750595b9080825280602002602001820160405250600190805190602001906100649291906100a2565b506000600460006101000a81548160ff021916908360ff1602179055506000600460016101000a81548160ff021916908360ff16021790555061016f565b82805482825590600052602060002090810192821561011b579160200282015b8281111561011a5782518260006101000a81548173ffffffffffffffffffffffffffffffffffffffff021916908373ffffffffffffffffffffffffffffffffffffffff160217905550916020019190600101906100c2565b5b509050610128919061012c565b5090565b61016c91905b8082111561016857600081816101000a81549073ffffffffffffffffffffffffffffffffffffffff021916905550600101610132565b5090565b90565b6106da8061017e6000396000f300606060405260043610610083576000357c0100000000000000000000000000000000000000000000000000000000900463ffffffff1680631e223143146100885780633e3c9eae146100dd5780638f807f6b1461010c578063957908d114610145578063ad7d59fc1461015a578063e0c6190d14610189578063f2a75fe41461019e575b600080fd5b341561009357600080fd5b61009b6101cb565b604051808273ffffffffffffffffffffffffffffffffffffffff1673ffffffffffffffffffffffffffffffffffffffff16815260200191505060405180910390f35b34156100e857600080fd5b6100f061021f565b604051808260ff1660ff16815260200191505060405180910390f35b341561011757600080fd5b610143600480803573ffffffffffffffffffffffffffffffffffffffff1690602001909190505061027d565b005b341561015057600080fd5b6101586103b4565b005b341561016557600080fd5b61016d610529565b604051808260ff1660ff16815260200191505060405180910390f35b341561019457600080fd5b61019c6105df565b005b34156101a957600080fd5b6101b1610649565b604051808215151515815260200191505060405180910390f35b60006001600460009054906101000a900460ff1660ff168154811015156101ee57fe5b906000526020600020900160009054906101000a900473ffffffffffffffffffffffffffffffffffffffff16905090565b6000600460009054906101000a900460ff1660ff16600460019054906101000a900460ff1660ff161415610256576000905061027a565b600460009054906101000a900460ff16600460019054906101000a900460ff160390505b90565b600561028761021f565b60ff1610151561029657600080fd5b6001600460018282829054906101000a900460ff160192506101000a81548160ff021916908360ff160217905550600180548060010182816102d8919061065d565b9160005260206000209001600083909190916101000a81548173ffffffffffffffffffffffffffffffffffffffff021916908373ffffffffffffffffffffffffffffffffffffffff1602179055505061032f610649565b1561033c57426003819055505b7fcc76729e93ab86350539029d40df62d39ea2004e656c82c318d7949b59b3997d8161036661021f565b604051808373ffffffffffffffffffffffffffffffffffffffff1673ffffffffffffffffffffffffffffffffffffffff1681526020018260ff1681526020019250505060405180910390a150565b6103bc610649565b1515156103c857600080fd5b7fe025626f458e0ac51c2d0d3895c2df8363af161a054a4183387a53e3d721f0a36001600460009054906101000a900460ff1660ff1681548110151561040a57fe5b906000526020600020900160009054906101000a900473ffffffffffffffffffffffffffffffffffffffff16604051808273ffffffffffffffffffffffffffffffffffffffff1673ffffffffffffffffffffffffffffffffffffffff16815260200191505060405180910390a16001600460009054906101000a900460ff1660ff1681548110151561049857fe5b906000526020600020900160006101000a81549073ffffffffffffffffffffffffffffffffffffffff02191690556001600460008282829054906101000a900460ff160192506101000a81548160ff021916908360ff160217905550426003819055507ffd27e0101f030dc5af5070d09ade0c41ac936bc0cb9281e395597bbad2df3a9b60405160405180910390a1565b600080600460009054906101000a900460ff1690505b61054761021f565b60ff168160ff1610156105da5760018160ff1681548110151561056657fe5b906000526020600020900160009054906101000a900473ffffffffffffffffffffffffffffffffffffffff1673ffffffffffffffffffffffffffffffffffffffff163373ffffffffffffffffffffffffffffffffffffffff1614156105cd578091506105db565b808060010191505061053f565b5b5090565b6105e7610649565b1580156105f957506003544203600254105b151561060457600080fd5b7f0c4a3338d73d6047ad9cd506e8e98a569840b955cdbf20806a98e628ba7f107060035442036040518082815260200191505060405180910390a16106476103b4565b565b60008061065461021f565b60ff1614905090565b815481835581811511610684578183600052602060002091820191016106839190610689565b5b505050565b6106ab91905b808211156106a757600081600090555060010161068f565b5090565b905600a165627a7a7230582018c05b27a080d0d1713b944dff824a9967b118b6d034477694b1e523403c6c680029",
  "source": "pragma solidity ^0.4.15;\n\n/**\n * @title Queue\n * @dev Data structure contract used in `Crowdsale.sol`\n * Allows buyers to line up on a first-in-first-out basis\n * See this example: http://interactivepython.org/courselib/static/pythonds/BasicDS/ImplementingaQueueinPython.html\n */\n\ncontract Queue {\n    /* State variables */\n    uint8 size = 5;\n    address[] queue;\n    uint timeLimit = 1 * 1 minutes; // minutes\n    uint lastHeadTime;\n    uint8 front;\n    uint8 back;\n\n    /* Add events */\n    event Enqueue(address adr, uint pos);\n    event Dequeue(address adr);\n    event LastTimeUpdated();\n    event CheckTime(uint from);\n\n    /* Add constructor */\n    function Queue() public {\n        queue = new address[](0);\n        front = 0;\n        back = 0;\n    }\n\n    /* Returns the number of people waiting in line */\n    function qsize() public constant returns(uint8) {\n        if (back == front) {\n            return 0;\n        } else {\n            return back-front;\n        }\n    }\n\n    /* Returns whether the queue is empty or not */\n    function empty() public constant returns(bool) {\n        return qsize() == 0;\n    }\n\n    /* Returns the address of the person in the front of the queue */\n    function getFirst() public constant returns(address) {\n        return queue[front];\n    }\n\n    /* Allows `msg.sender` to check their position in the queue */\n    function checkPlace() public constant returns(uint8) {\n        for (uint8 i = front; i < qsize(); i++) {\n            if (msg.sender == queue[i]) {\n                return i;\n            }\n        }\n    }\n\n    /* Allows anyone to expel the first person in line if their time\n        * limit is up\n        */\n    function checkTime() public { \n        require(!empty() && timeLimit < now - lastHeadTime);\n        CheckTime(now - lastHeadTime);\n        dequeue();\n    }\n\n    /* Removes the first person in line; either when their time is up or when\n        * they are done with their purchase\n        */\n    function dequeue() public {\n        require(!empty());\n        Dequeue(queue[front]);\n        delete queue[front];\n        front += 1;\n        lastHeadTime = now;\n        LastTimeUpdated();\n    }\n\n    /* Places `addr` in the first empty position in the queue */\n    function enqueue(address addr) public {\n        require(qsize() < 5);\n        back += 1;\n        queue.push(addr);\n        if (empty()) {\n            lastHeadTime = now;\n        }\n        Enqueue(addr, qsize());\n    }\n}\n",
  "sourcePath": "/mnt/c/Users/esteb/Documents/BaB/BlockchainForDevelopers/sp18-midterm-p1/contracts/Queue.sol",
  "compiler": {
    "name": "solc",
    "version": "0.4.19+commit.c4cbbb05.Emscripten.clang"
  },
  "schemaVersion": "1.0.1",
  "updatedAt": "2018-03-07T18:45:25.226Z"
}