{
  "contractName": "Queue",
  "abi": [
    {
      "inputs": [
        {
          "name": "_timeGap",
          "type": "uint256"
        }
      ],
      "payable": false,
      "stateMutability": "nonpayable",
      "type": "constructor"
    },
    {
      "payable": true,
      "stateMutability": "payable",
      "type": "fallback"
    },
    {
      "anonymous": false,
      "inputs": [
        {
          "indexed": false,
          "name": "adr",
          "type": "address"
        },
        {
          "indexed": false,
          "name": "pos",
          "type": "uint256"
        }
      ],
      "name": "Enqueue",
      "type": "event"
    },
    {
      "anonymous": false,
      "inputs": [
        {
          "indexed": false,
          "name": "adr",
          "type": "address"
        }
      ],
      "name": "Dequeue",
      "type": "event"
    },
    {
      "anonymous": false,
      "inputs": [],
      "name": "LastTimeUpdated",
      "type": "event"
    },
    {
      "anonymous": false,
      "inputs": [
        {
          "indexed": false,
          "name": "_pos",
          "type": "uint256"
        }
      ],
      "name": "CheckPlace",
      "type": "event"
    },
    {
      "constant": true,
      "inputs": [],
      "name": "qsize",
      "outputs": [
        {
          "name": "",
          "type": "uint8"
        }
      ],
      "payable": false,
      "stateMutability": "view",
      "type": "function"
    },
    {
      "constant": true,
      "inputs": [],
      "name": "empty",
      "outputs": [
        {
          "name": "",
          "type": "bool"
        }
      ],
      "payable": false,
      "stateMutability": "view",
      "type": "function"
    },
    {
      "constant": true,
      "inputs": [],
      "name": "getFirst",
      "outputs": [
        {
          "name": "",
          "type": "address"
        }
      ],
      "payable": false,
      "stateMutability": "view",
      "type": "function"
    },
    {
      "constant": true,
      "inputs": [
        {
          "name": "_address",
          "type": "address"
        }
      ],
      "name": "checkPlace",
      "outputs": [
        {
          "name": "",
          "type": "uint8"
        }
      ],
      "payable": false,
      "stateMutability": "view",
      "type": "function"
    },
    {
      "constant": false,
      "inputs": [],
      "name": "checkTime",
      "outputs": [
        {
          "name": "",
          "type": "bool"
        }
      ],
      "payable": false,
      "stateMutability": "nonpayable",
      "type": "function"
    },
    {
      "constant": false,
      "inputs": [],
      "name": "dequeue",
      "outputs": [],
      "payable": false,
      "stateMutability": "nonpayable",
      "type": "function"
    },
    {
      "constant": false,
      "inputs": [
        {
          "name": "addr",
          "type": "address"
        }
      ],
      "name": "enqueue",
      "outputs": [
        {
          "name": "",
          "type": "bool"
        }
      ],
      "payable": false,
      "stateMutability": "nonpayable",
      "type": "function"
    }
  ],
  "bytecode": "0x606060405260056000806101000a81548160ff021916908360ff160217905550341561002a57600080fd5b6040516020806109378339810160405280805190602001909190505060006040518059106100555750595b90808252806020026020018201604052506001908051906020019061007b9291906100c4565b506000600460006101000a81548160ff021916908360ff1602179055506000600460016101000a81548160ff021916908360ff160217905550603c810260028190555050610191565b82805482825590600052602060002090810192821561013d579160200282015b8281111561013c5782518260006101000a81548173ffffffffffffffffffffffffffffffffffffffff021916908373ffffffffffffffffffffffffffffffffffffffff160217905550916020019190600101906100e4565b5b50905061014a919061014e565b5090565b61018e91905b8082111561018a57600081816101000a81549073ffffffffffffffffffffffffffffffffffffffff021916905550600101610154565b5090565b90565b610797806101a06000396000f300606060405260043610610083576000357c0100000000000000000000000000000000000000000000000000000000900463ffffffff1680631e223143146100c85780633e3c9eae1461011d5780636b4cc50b1461014c5780638f807f6b1461019f578063957908d1146101f0578063e0c6190d14610205578063f2a75fe414610232575b3373ffffffffffffffffffffffffffffffffffffffff166108fc349081150290604051600060405180830381858888f1935050505015156100c357600080fd5b600080fd5b34156100d357600080fd5b6100db61025f565b604051808273ffffffffffffffffffffffffffffffffffffffff1673ffffffffffffffffffffffffffffffffffffffff16815260200191505060405180910390f35b341561012857600080fd5b6101306102ca565b604051808260ff1660ff16815260200191505060405180910390f35b341561015757600080fd5b610183600480803573ffffffffffffffffffffffffffffffffffffffff16906020019091905050610328565b604051808260ff1660ff16815260200191505060405180910390f35b34156101aa57600080fd5b6101d6600480803573ffffffffffffffffffffffffffffffffffffffff16906020019091905050610409565b604051808215151515815260200191505060405180910390f35b34156101fb57600080fd5b610203610548565b005b341561021057600080fd5b6102186106cc565b604051808215151515815260200191505060405180910390f35b341561023d57600080fd5b610245610706565b604051808215151515815260200191505060405180910390f35b6000610269610706565b1561027757600090506102c7565b6001600460009054906101000a900460ff1660ff1681548110151561029857fe5b906000526020600020900160009054906101000a900473ffffffffffffffffffffffffffffffffffffffff1690505b90565b6000600460009054906101000a900460ff1660ff16600460019054906101000a900460ff1660ff1614156103015760009050610325565b600460009054906101000a900460ff16600460019054906101000a900460ff160390505b90565b600080600460009054906101000a900460ff1690505b600460009054906101000a900460ff166103566102ca565b0160ff168160ff1610156103fe5760018160ff1681548110151561037657fe5b906000526020600020900160009054906101000a900473ffffffffffffffffffffffffffffffffffffffff1673ffffffffffffffffffffffffffffffffffffffff168373ffffffffffffffffffffffffffffffffffffffff1614156103f157600460009054906101000a900460ff1660018201039150610403565b808060010191505061033e565b600091505b50919050565b600060056104156102ca565b60ff1610151561042457600080fd5b61042c610706565b1561043957426003819055505b6001600460018282829054906101000a900460ff160192506101000a81548160ff021916908360ff1602179055506001805480600101828161047b919061071a565b9160005260206000209001600084909190916101000a81548173ffffffffffffffffffffffffffffffffffffffff021916908373ffffffffffffffffffffffffffffffffffffffff160217905550507fcc76729e93ab86350539029d40df62d39ea2004e656c82c318d7949b59b3997d826104f46102ca565b604051808373ffffffffffffffffffffffffffffffffffffffff1673ffffffffffffffffffffffffffffffffffffffff1681526020018260ff1681526020019250505060405180910390a160019050919050565b610550610706565b15151561055c57600080fd5b7fe025626f458e0ac51c2d0d3895c2df8363af161a054a4183387a53e3d721f0a36001600460009054906101000a900460ff1660ff1681548110151561059e57fe5b906000526020600020900160009054906101000a900473ffffffffffffffffffffffffffffffffffffffff16604051808273ffffffffffffffffffffffffffffffffffffffff1673ffffffffffffffffffffffffffffffffffffffff16815260200191505060405180910390a16001600460009054906101000a900460ff1660ff1681548110151561062c57fe5b906000526020600020900160006101000a81549073ffffffffffffffffffffffffffffffffffffffff02191690556001600460008282829054906101000a900460ff160192506101000a81548160ff021916908360ff160217905550610690610706565b151561069e57426003819055505b7ffd27e0101f030dc5af5070d09ade0c41ac936bc0cb9281e395597bbad2df3a9b60405160405180910390a1565b60006106d6610706565b1580156106e857506003544203600254105b156106fe576106f5610548565b60019050610703565b600090505b90565b6000806107116102ca565b60ff1614905090565b815481835581811511610741578183600052602060002091820191016107409190610746565b5b505050565b61076891905b8082111561076457600081600090555060010161074c565b5090565b905600a165627a7a7230582023e3d273ba904e3b74cda4549d58d6088e16bbddd8eb4f3f76c49ab335d6236e0029",
  "source": "pragma solidity ^0.4.15;\n\n/**\n * @title Queue\n * @dev Data structure contract used in `Crowdsale.sol`\n * Allows buyers to line up on a first-in-first-out basis\n * See this example: http://interactivepython.org/courselib/static/pythonds/BasicDS/ImplementingaQueueinPython.html\n */\n\ncontract Queue {\n    /* State variables */\n    uint8 size = 5;\n    address[] queue;\n\n    uint timeLimit;\n    uint lastHeadTime;\n\n    uint8 front;\n    uint8 back;\n\n    /* Add events */\n    event Enqueue(address adr, uint pos);\n    event Dequeue(address adr);\n    event LastTimeUpdated();\n    event CheckPlace(uint _pos);\n    \n\n    /* Add constructor */\n    function Queue(uint _timeGap) public {\n        queue = new address[](0);\n        front = 0;\n        back = 0;\n        timeLimit = _timeGap * 1 minutes;\n    }\n\n    /* Returns the number of people waiting in line */\n    function qsize() public constant returns(uint8) {\n        if (back == front) {\n            return 0;\n        } else {\n            return back-front;\n        }\n    }\n\n    /* Returns whether the queue is empty or not */\n    function empty() public constant returns(bool) {\n        return qsize() == 0;\n    }\n\n    /* Returns the address of the person in the front of the queue */\n    function getFirst() public constant returns(address) {\n        if (empty()) {\n            return 0;\n        }\n        return queue[front];\n    }\n\n    /* Allows `msg.sender` to check their position in the queue */\n    function checkPlace(address _address) public constant returns(uint8) {\n        for (uint8 i = front; i < qsize() + front; i++) {\n            if (_address == queue[i]) {\n                return i+1-front;\n            }\n        }\n        return 0;\n    }\n\n    /* Allows anyone to expel the first person in line if their time\n        * limit is up\n        * returns true if dequeue() is executed\n        */\n    // Checktime in terms of blocks created between transactions\n    // due to time problems\n    function checkTime() public returns (bool) { \n        if (!empty() && timeLimit < now - lastHeadTime) {\n            dequeue();\n            return true;\n        } else {\n            return false;\n        }\n\n        /* CheckBlock(blockLimit, block.number, lastHeadBlock);\n        if (!empty() && blockLimit < block.number - lastHeadBlock) {\n            dequeue();\n            return true;\n        } else {\n            return false;\n        }*/\n    }\n\n    /* Removes the first person in line; either when their time is up or when\n        * they are done with their purchase\n        */\n    function dequeue() public {\n        require(!empty());\n        Dequeue(queue[front]);\n        delete queue[front];\n        front += 1;\n        if (!empty()) {\n            lastHeadTime = now;            \n        }\n        LastTimeUpdated();\n    }\n\n    /* Places `addr` in the first empty position in the queue */\n    function enqueue(address addr) public returns (bool) {\n        require(qsize() < 5);\n        if (empty()) {\n            lastHeadTime = now;\n        }\n        back += 1;\n        queue.push(addr);\n        Enqueue(addr, qsize());\n        return true;\n    }\n    \n    function () public payable {\n        msg.sender.transfer(msg.value);\n        revert();\n    }\n}\n",
  "sourcePath": "/mnt/c/Users/esteb/Documents/BaB/BlockchainForDevelopers/sp18-midterm-p1/contracts/Queue.sol",
  "compiler": {
    "name": "solc",
    "version": "0.4.19+commit.c4cbbb05.Emscripten.clang"
  },
  "schemaVersion": "1.0.1",
  "updatedAt": "2018-03-08T23:13:03.998Z"
}